{
  "_format": "hh-sol-artifact-1",
  "contractName": "vote",
  "sourceName": "client/src/contracts/voting.sol",
  "abi": [
    {
      "inputs": [],
      "stateMutability": "nonpayable",
      "type": "constructor"
    },
    {
      "inputs": [
        {
          "internalType": "uint256",
          "name": "",
          "type": "uint256"
        }
      ],
      "name": "candidateDetails",
      "outputs": [
        {
          "internalType": "string",
          "name": "name",
          "type": "string"
        },
        {
          "internalType": "uint256",
          "name": "age",
          "type": "uint256"
        },
        {
          "internalType": "string",
          "name": "party",
          "type": "string"
        },
        {
          "internalType": "string",
          "name": "gender",
          "type": "string"
        },
        {
          "internalType": "uint256",
          "name": "CandidateId",
          "type": "uint256"
        },
        {
          "internalType": "address",
          "name": "candidateAddress",
          "type": "address"
        },
        {
          "internalType": "uint256",
          "name": "votes",
          "type": "uint256"
        }
      ],
      "stateMutability": "view",
      "type": "function"
    },
    {
      "inputs": [],
      "name": "candidateList",
      "outputs": [
        {
          "components": [
            {
              "internalType": "string",
              "name": "name",
              "type": "string"
            },
            {
              "internalType": "uint256",
              "name": "age",
              "type": "uint256"
            },
            {
              "internalType": "string",
              "name": "party",
              "type": "string"
            },
            {
              "internalType": "string",
              "name": "gender",
              "type": "string"
            },
            {
              "internalType": "uint256",
              "name": "CandidateId",
              "type": "uint256"
            },
            {
              "internalType": "address",
              "name": "candidateAddress",
              "type": "address"
            },
            {
              "internalType": "uint256",
              "name": "votes",
              "type": "uint256"
            }
          ],
          "internalType": "struct vote.candidate[]",
          "name": "",
          "type": "tuple[]"
        }
      ],
      "stateMutability": "view",
      "type": "function"
    },
    {
      "inputs": [
        {
          "internalType": "string",
          "name": "name",
          "type": "string"
        },
        {
          "internalType": "uint256",
          "name": "age",
          "type": "uint256"
        },
        {
          "internalType": "string",
          "name": "party",
          "type": "string"
        },
        {
          "internalType": "string",
          "name": "gender",
          "type": "string"
        }
      ],
      "name": "candidateRegistration",
      "outputs": [],
      "stateMutability": "nonpayable",
      "type": "function"
    },
    {
      "inputs": [],
      "name": "electionCommision",
      "outputs": [
        {
          "internalType": "address",
          "name": "",
          "type": "address"
        }
      ],
      "stateMutability": "view",
      "type": "function"
    },
    {
      "inputs": [],
      "name": "emergency",
      "outputs": [],
      "stateMutability": "nonpayable",
      "type": "function"
    },
    {
      "inputs": [],
      "name": "result",
      "outputs": [],
      "stateMutability": "nonpayable",
      "type": "function"
    },
    {
      "inputs": [
        {
          "internalType": "uint256",
          "name": "_startTime",
          "type": "uint256"
        },
        {
          "internalType": "uint256",
          "name": "_endTime",
          "type": "uint256"
        }
      ],
      "name": "voteTime",
      "outputs": [],
      "stateMutability": "nonpayable",
      "type": "function"
    },
    {
      "inputs": [
        {
          "internalType": "uint256",
          "name": "",
          "type": "uint256"
        }
      ],
      "name": "voterDetails",
      "outputs": [
        {
          "internalType": "string",
          "name": "name",
          "type": "string"
        },
        {
          "internalType": "uint256",
          "name": "age",
          "type": "uint256"
        },
        {
          "internalType": "uint256",
          "name": "voterId",
          "type": "uint256"
        },
        {
          "internalType": "string",
          "name": "gender",
          "type": "string"
        },
        {
          "internalType": "uint256",
          "name": "voteCandidateId",
          "type": "uint256"
        },
        {
          "internalType": "address",
          "name": "voterAddress",
          "type": "address"
        }
      ],
      "stateMutability": "view",
      "type": "function"
    },
    {
      "inputs": [],
      "name": "voterList",
      "outputs": [
        {
          "components": [
            {
              "internalType": "string",
              "name": "name",
              "type": "string"
            },
            {
              "internalType": "uint256",
              "name": "age",
              "type": "uint256"
            },
            {
              "internalType": "uint256",
              "name": "voterId",
              "type": "uint256"
            },
            {
              "internalType": "string",
              "name": "gender",
              "type": "string"
            },
            {
              "internalType": "uint256",
              "name": "voteCandidateId",
              "type": "uint256"
            },
            {
              "internalType": "address",
              "name": "voterAddress",
              "type": "address"
            }
          ],
          "internalType": "struct vote.voter[]",
          "name": "",
          "type": "tuple[]"
        }
      ],
      "stateMutability": "view",
      "type": "function"
    },
    {
      "inputs": [
        {
          "internalType": "string",
          "name": "name",
          "type": "string"
        },
        {
          "internalType": "uint256",
          "name": "age",
          "type": "uint256"
        },
        {
          "internalType": "string",
          "name": "gender",
          "type": "string"
        }
      ],
      "name": "voterRegistration",
      "outputs": [],
      "stateMutability": "nonpayable",
      "type": "function"
    },
    {
      "inputs": [
        {
          "internalType": "uint256",
          "name": "voterId",
          "type": "uint256"
        },
        {
          "internalType": "uint256",
          "name": "id",
          "type": "uint256"
        }
      ],
      "name": "voting",
      "outputs": [],
      "stateMutability": "nonpayable",
      "type": "function"
    },
    {
      "inputs": [],
      "name": "votingStatus",
      "outputs": [
        {
          "internalType": "string",
          "name": "",
          "type": "string"
        }
      ],
      "stateMutability": "view",
      "type": "function"
    },
    {
      "inputs": [],
      "name": "winner",
      "outputs": [
        {
          "internalType": "address",
          "name": "",
          "type": "address"
        }
      ],
      "stateMutability": "view",
      "type": "function"
    }
  ],
  "bytecode": "0x60806040526001600255600160035534801561001a57600080fd5b50336000806101000a81548173ffffffffffffffffffffffffffffffffffffffff021916908373ffffffffffffffffffffffffffffffffffffffff160217905550612a0f8061006a6000396000f3fe608060405234801561001057600080fd5b50600436106100cf5760003560e01c8063653721471161008c57806395bc50d71161006657806395bc50d7146101f9578063caa6fea414610215578063cfaad27c1461021f578063dfbf53ae1461023b576100cf565b806365372147146101b557806365ca2be3146101bf57806386dcb683146101db576100cf565b806319f41a40146100d457806324089918146100f2578063322f029d14610110578063498ea441146101455780635d74b023146101635780636247e5321461017f575b600080fd5b6100dc610259565b6040516100e9919061184f565b60405180910390f35b6100fa610334565b6040516101079190611a67565b60405180910390f35b61012a60048036038101906101259190611ac9565b6105a8565b60405161013c96959493929190611b14565b60405180910390f35b61014d610714565b60405161015a9190611cef565b60405180910390f35b61017d60048036038101906101789190611e46565b610a1a565b005b61019960048036038101906101949190611ac9565b610b99565b6040516101ac9796959493929190611ed1565b60405180910390f35b6101bd610d93565b005b6101d960048036038101906101d49190611f55565b610fa0565b005b6101e3611071565b6040516101f09190611f95565b60405180910390f35b610213600480360381019061020e9190611fb0565b611095565b005b61021d61128f565b005b61023960048036038101906102349190611f55565b61133a565b005b6102436115b4565b6040516102509190611f95565b60405180910390f35b60606000600454036102a2576040518060400160405280601681526020017f766f74696e67206973206e6f74207374617274656420000000000000000000008152509050610331565b6000600454141580156102b6575060055442105b156102f8576040518060400160405280601581526020017f766f74696e6720697320696e2070726f677265737300000000000000000000008152509050610331565b6040518060400160405280600c81526020017f566f74696e6720456e646564000000000000000000000000000000000000000081525090505b90565b606060006001600354610347919061209a565b67ffffffffffffffff8111156103605761035f611d1b565b5b60405190808252806020026020018201604052801561039957816020015b610386611720565b81526020019060019003908161037e5790505b5090506000600190505b6003548110156105a057600760008281526020019081526020016000206040518060c00160405290816000820180546103db906120fd565b80601f0160208091040260200160405190810160405280929190818152602001828054610407906120fd565b80156104545780601f1061042957610100808354040283529160200191610454565b820191906000526020600020905b81548152906001019060200180831161043757829003601f168201915b505050505081526020016001820154815260200160028201548152602001600382018054610481906120fd565b80601f01602080910402602001604051908101604052809291908181526020018280546104ad906120fd565b80156104fa5780601f106104cf576101008083540402835291602001916104fa565b820191906000526020600020905b8154815290600101906020018083116104dd57829003601f168201915b50505050508152602001600482015481526020016005820160009054906101000a900473ffffffffffffffffffffffffffffffffffffffff1673ffffffffffffffffffffffffffffffffffffffff1673ffffffffffffffffffffffffffffffffffffffff168152505082600183610571919061209a565b815181106105825761058161212e565b5b602002602001018190525080806105989061215d565b9150506103a3565b508091505090565b60076020528060005260406000206000915090508060000180546105cb906120fd565b80601f01602080910402602001604051908101604052809291908181526020018280546105f7906120fd565b80156106445780601f1061061957610100808354040283529160200191610644565b820191906000526020600020905b81548152906001019060200180831161062757829003601f168201915b505050505090806001015490806002015490806003018054610665906120fd565b80601f0160208091040260200160405190810160405280929190818152602001828054610691906120fd565b80156106de5780601f106106b3576101008083540402835291602001916106de565b820191906000526020600020905b8154815290600101906020018083116106c157829003601f168201915b5050505050908060040154908060050160009054906101000a900473ffffffffffffffffffffffffffffffffffffffff16905086565b606060006001600254610727919061209a565b67ffffffffffffffff8111156107405761073f611d1b565b5b60405190808252806020026020018201604052801561077957816020015b61076661176c565b81526020019060019003908161075e5790505b5090506000600190505b600254811015610a1257600860008281526020019081526020016000206040518060e00160405290816000820180546107bb906120fd565b80601f01602080910402602001604051908101604052809291908181526020018280546107e7906120fd565b80156108345780601f1061080957610100808354040283529160200191610834565b820191906000526020600020905b81548152906001019060200180831161081757829003601f168201915b5050505050815260200160018201548152602001600282018054610857906120fd565b80601f0160208091040260200160405190810160405280929190818152602001828054610883906120fd565b80156108d05780601f106108a5576101008083540402835291602001916108d0565b820191906000526020600020905b8154815290600101906020018083116108b357829003601f168201915b505050505081526020016003820180546108e9906120fd565b80601f0160208091040260200160405190810160405280929190818152602001828054610915906120fd565b80156109625780601f1061093757610100808354040283529160200191610962565b820191906000526020600020905b81548152906001019060200180831161094557829003601f168201915b50505050508152602001600482015481526020016005820160009054906101000a900473ffffffffffffffffffffffffffffffffffffffff1673ffffffffffffffffffffffffffffffffffffffff1673ffffffffffffffffffffffffffffffffffffffff168152602001600682015481525050826001836109e3919061209a565b815181106109f4576109f361212e565b5b60200260200101819052508080610a0a9061215d565b915050610783565b508091505090565b60128211610a5d576040517f08c379a0000000000000000000000000000000000000000000000000000000008152600401610a54906121f1565b60405180910390fd5b610a66336115da565b610aa5576040517f08c379a0000000000000000000000000000000000000000000000000000000008152600401610a9c9061225d565b60405180910390fd5b6040518060c001604052808481526020018381526020016003548152602001828152602001600081526020013373ffffffffffffffffffffffffffffffffffffffff168152506007600060035481526020019081526020016000206000820151816000019081610b159190612429565b5060208201518160010155604082015181600201556060820151816003019081610b3f9190612429565b506080820151816004015560a08201518160050160006101000a81548173ffffffffffffffffffffffffffffffffffffffff021916908373ffffffffffffffffffffffffffffffffffffffff160217905550905050505050565b6008602052806000526040600020600091509050806000018054610bbc906120fd565b80601f0160208091040260200160405190810160405280929190818152602001828054610be8906120fd565b8015610c355780601f10610c0a57610100808354040283529160200191610c35565b820191906000526020600020905b815481529060010190602001808311610c1857829003601f168201915b505050505090806001015490806002018054610c50906120fd565b80601f0160208091040260200160405190810160405280929190818152602001828054610c7c906120fd565b8015610cc95780601f10610c9e57610100808354040283529160200191610cc9565b820191906000526020600020905b815481529060010190602001808311610cac57829003601f168201915b505050505090806003018054610cde906120fd565b80601f0160208091040260200160405190810160405280929190818152602001828054610d0a906120fd565b8015610d575780601f10610d2c57610100808354040283529160200191610d57565b820191906000526020600020905b815481529060010190602001808311610d3a57829003601f168201915b5050505050908060040154908060050160009054906101000a900473ffffffffffffffffffffffffffffffffffffffff16908060060154905087565b3373ffffffffffffffffffffffffffffffffffffffff1660008054906101000a900473ffffffffffffffffffffffffffffffffffffffff1673ffffffffffffffffffffffffffffffffffffffff1614610e21576040517f08c379a0000000000000000000000000000000000000000000000000000000008152600401610e189061256d565b60405180910390fd5b60006001600254610e32919061209a565b67ffffffffffffffff811115610e4b57610e4a611d1b565b5b604051908082528060200260200182016040528015610e8457816020015b610e7161176c565b815260200190600190039081610e695790505b509050610e8f610714565b905080600181518110610ea557610ea461212e565b5b602002602001015160c0015181600081518110610ec557610ec461212e565b5b602002602001015160c001511115610f3c5780600081518110610eeb57610eea61212e565b5b602002602001015160a00151600160006101000a81548173ffffffffffffffffffffffffffffffffffffffff021916908373ffffffffffffffffffffffffffffffffffffffff160217905550610f9d565b80600181518110610f5057610f4f61212e565b5b602002602001015160a00151600160006101000a81548173ffffffffffffffffffffffffffffffffffffffff021916908373ffffffffffffffffffffffffffffffffffffffff1602179055505b50565b3373ffffffffffffffffffffffffffffffffffffffff1660008054906101000a900473ffffffffffffffffffffffffffffffffffffffff1673ffffffffffffffffffffffffffffffffffffffff161461102e576040517f08c379a00000000000000000000000000000000000000000000000000000000081526004016110259061256d565b60405180910390fd5b814261103a919061258d565b600481905550804261104c919061258d565b6005819055506000600660006101000a81548160ff0219169083151502179055505050565b60008054906101000a900473ffffffffffffffffffffffffffffffffffffffff1681565b60128310156110d9576040517f08c379a00000000000000000000000000000000000000000000000000000000081526004016110d0906121f1565b60405180910390fd5b6110e23361167d565b611121576040517f08c379a00000000000000000000000000000000000000000000000000000000081526004016111189061260d565b60405180910390fd5b600360025410611166576040517f08c379a000000000000000000000000000000000000000000000000000000000815260040161115d90612679565b60405180910390fd5b6040518060e0016040528085815260200184815260200183815260200182815260200160025481526020013373ffffffffffffffffffffffffffffffffffffffff168152602001600081525060086000600254815260200190815260200160002060008201518160000190816111dc9190612429565b506020820151816001015560408201518160020190816111fc9190612429565b5060608201518160030190816112129190612429565b506080820151816004015560a08201518160050160006101000a81548173ffffffffffffffffffffffffffffffffffffffff021916908373ffffffffffffffffffffffffffffffffffffffff16021790555060c08201518160060155905050600260008154809291906112849061215d565b919050555050505050565b3373ffffffffffffffffffffffffffffffffffffffff1660008054906101000a900473ffffffffffffffffffffffffffffffffffffffff1673ffffffffffffffffffffffffffffffffffffffff161461131d576040517f08c379a00000000000000000000000000000000000000000000000000000000081526004016113149061270b565b60405180910390fd5b6001600660006101000a81548160ff021916908315150217905550565b4260055411806113565750600660009054906101000a900460ff165b611395576040517f08c379a000000000000000000000000000000000000000000000000000000000815260040161138c90612777565b60405180910390fd5b3373ffffffffffffffffffffffffffffffffffffffff166007600084815260200190815260200160002060050160009054906101000a900473ffffffffffffffffffffffffffffffffffffffff1673ffffffffffffffffffffffffffffffffffffffff1614611439576040517f08c379a0000000000000000000000000000000000000000000000000000000008152600401611430906127e3565b60405180910390fd5b6000600760008481526020019081526020016000206004015414611492576040517f08c379a00000000000000000000000000000000000000000000000000000000081526004016114899061284f565b60405180910390fd5b60045442116114d6576040517f08c379a00000000000000000000000000000000000000000000000000000000081526004016114cd906128bb565b60405180910390fd5b600280541161151a576040517f08c379a00000000000000000000000000000000000000000000000000000000081526004016115119061294d565b60405180910390fd5b60008111801561152a5750600381105b611569576040517f08c379a0000000000000000000000000000000000000000000000000000000008152600401611560906129b9565b60405180910390fd5b8060076000848152602001908152602001600020600401819055506008600082815260200190815260200160002060060160008154809291906115ab9061215d565b91905055505050565b600160009054906101000a900473ffffffffffffffffffffffffffffffffffffffff1681565b600080600190505b600354811015611672578273ffffffffffffffffffffffffffffffffffffffff166007600083815260200190815260200160002060050160009054906101000a900473ffffffffffffffffffffffffffffffffffffffff1673ffffffffffffffffffffffffffffffffffffffff160361165f576000915050611678565b808061166a9061215d565b9150506115e2565b50600190505b919050565b600080600190505b600254811015611715578273ffffffffffffffffffffffffffffffffffffffff166008600083815260200190815260200160002060050160009054906101000a900473ffffffffffffffffffffffffffffffffffffffff1673ffffffffffffffffffffffffffffffffffffffff160361170257600091505061171b565b808061170d9061215d565b915050611685565b50600190505b919050565b6040518060c001604052806060815260200160008152602001600081526020016060815260200160008152602001600073ffffffffffffffffffffffffffffffffffffffff1681525090565b6040518060e001604052806060815260200160008152602001606081526020016060815260200160008152602001600073ffffffffffffffffffffffffffffffffffffffff168152602001600081525090565b600081519050919050565b600082825260208201905092915050565b60005b838110156117f95780820151818401526020810190506117de565b60008484015250505050565b6000601f19601f8301169050919050565b6000611821826117bf565b61182b81856117ca565b935061183b8185602086016117db565b61184481611805565b840191505092915050565b600060208201905081810360008301526118698184611816565b905092915050565b600081519050919050565b600082825260208201905092915050565b6000819050602082019050919050565b600082825260208201905092915050565b60006118b9826117bf565b6118c3818561189d565b93506118d38185602086016117db565b6118dc81611805565b840191505092915050565b6000819050919050565b6118fa816118e7565b82525050565b600073ffffffffffffffffffffffffffffffffffffffff82169050919050565b600061192b82611900565b9050919050565b61193b81611920565b82525050565b600060c083016000830151848203600086015261195e82826118ae565b915050602083015161197360208601826118f1565b50604083015161198660408601826118f1565b506060830151848203606086015261199e82826118ae565b91505060808301516119b360808601826118f1565b5060a08301516119c660a0860182611932565b508091505092915050565b60006119dd8383611941565b905092915050565b6000602082019050919050565b60006119fd82611871565b611a07818561187c565b935083602082028501611a198561188d565b8060005b85811015611a555784840389528151611a3685826119d1565b9450611a41836119e5565b925060208a01995050600181019050611a1d565b50829750879550505050505092915050565b60006020820190508181036000830152611a8181846119f2565b905092915050565b6000604051905090565b600080fd5b600080fd5b611aa6816118e7565b8114611ab157600080fd5b50565b600081359050611ac381611a9d565b92915050565b600060208284031215611adf57611ade611a93565b5b6000611aed84828501611ab4565b91505092915050565b611aff816118e7565b82525050565b611b0e81611920565b82525050565b600060c0820190508181036000830152611b2e8189611816565b9050611b3d6020830188611af6565b611b4a6040830187611af6565b8181036060830152611b5c8186611816565b9050611b6b6080830185611af6565b611b7860a0830184611b05565b979650505050505050565b600081519050919050565b600082825260208201905092915050565b6000819050602082019050919050565b600060e0830160008301518482036000860152611bcc82826118ae565b9150506020830151611be160208601826118f1565b5060408301518482036040860152611bf982826118ae565b91505060608301518482036060860152611c1382826118ae565b9150506080830151611c2860808601826118f1565b5060a0830151611c3b60a0860182611932565b5060c0830151611c4e60c08601826118f1565b508091505092915050565b6000611c658383611baf565b905092915050565b6000602082019050919050565b6000611c8582611b83565b611c8f8185611b8e565b935083602082028501611ca185611b9f565b8060005b85811015611cdd5784840389528151611cbe8582611c59565b9450611cc983611c6d565b925060208a01995050600181019050611ca5565b50829750879550505050505092915050565b60006020820190508181036000830152611d098184611c7a565b905092915050565b600080fd5b600080fd5b7f4e487b7100000000000000000000000000000000000000000000000000000000600052604160045260246000fd5b611d5382611805565b810181811067ffffffffffffffff82111715611d7257611d71611d1b565b5b80604052505050565b6000611d85611a89565b9050611d918282611d4a565b919050565b600067ffffffffffffffff821115611db157611db0611d1b565b5b611dba82611805565b9050602081019050919050565b82818337600083830152505050565b6000611de9611de484611d96565b611d7b565b905082815260208101848484011115611e0557611e04611d16565b5b611e10848285611dc7565b509392505050565b600082601f830112611e2d57611e2c611d11565b5b8135611e3d848260208601611dd6565b91505092915050565b600080600060608486031215611e5f57611e5e611a93565b5b600084013567ffffffffffffffff811115611e7d57611e7c611a98565b5b611e8986828701611e18565b9350506020611e9a86828701611ab4565b925050604084013567ffffffffffffffff811115611ebb57611eba611a98565b5b611ec786828701611e18565b9150509250925092565b600060e0820190508181036000830152611eeb818a611816565b9050611efa6020830189611af6565b8181036040830152611f0c8188611816565b90508181036060830152611f208187611816565b9050611f2f6080830186611af6565b611f3c60a0830185611b05565b611f4960c0830184611af6565b98975050505050505050565b60008060408385031215611f6c57611f6b611a93565b5b6000611f7a85828601611ab4565b9250506020611f8b85828601611ab4565b9150509250929050565b6000602082019050611faa6000830184611b05565b92915050565b60008060008060808587031215611fca57611fc9611a93565b5b600085013567ffffffffffffffff811115611fe857611fe7611a98565b5b611ff487828801611e18565b945050602061200587828801611ab4565b935050604085013567ffffffffffffffff81111561202657612025611a98565b5b61203287828801611e18565b925050606085013567ffffffffffffffff81111561205357612052611a98565b5b61205f87828801611e18565b91505092959194509250565b7f4e487b7100000000000000000000000000000000000000000000000000000000600052601160045260246000fd5b60006120a5826118e7565b91506120b0836118e7565b92508282039050818111156120c8576120c761206b565b5b92915050565b7f4e487b7100000000000000000000000000000000000000000000000000000000600052602260045260246000fd5b6000600282049050600182168061211557607f821691505b602082108103612128576121276120ce565b5b50919050565b7f4e487b7100000000000000000000000000000000000000000000000000000000600052603260045260246000fd5b6000612168826118e7565b91507fffffffffffffffffffffffffffffffffffffffffffffffffffffffffffffffff820361219a5761219961206b565b5b600182019050919050565b7f796f75206172652062656c6f7720313800000000000000000000000000000000600082015250565b60006121db6010836117ca565b91506121e6826121a5565b602082019050919050565b6000602082019050818103600083015261220a816121ce565b9050919050565b7f796f75206861766520616c726561647920726567697374657265640000000000600082015250565b6000612247601b836117ca565b915061225282612211565b602082019050919050565b600060208201905081810360008301526122768161223a565b9050919050565b60008190508160005260206000209050919050565b60006020601f8301049050919050565b600082821b905092915050565b6000600883026122df7fffffffffffffffffffffffffffffffffffffffffffffffffffffffffffffffff826122a2565b6122e986836122a2565b95508019841693508086168417925050509392505050565b6000819050919050565b600061232661232161231c846118e7565b612301565b6118e7565b9050919050565b6000819050919050565b6123408361230b565b61235461234c8261232d565b8484546122af565b825550505050565b600090565b61236961235c565b612374818484612337565b505050565b5b818110156123985761238d600082612361565b60018101905061237a565b5050565b601f8211156123dd576123ae8161227d565b6123b784612292565b810160208510156123c6578190505b6123da6123d285612292565b830182612379565b50505b505050565b600082821c905092915050565b6000612400600019846008026123e2565b1980831691505092915050565b600061241983836123ef565b9150826002028217905092915050565b612432826117bf565b67ffffffffffffffff81111561244b5761244a611d1b565b5b61245582546120fd565b61246082828561239c565b600060209050601f8311600181146124935760008415612481578287015190505b61248b858261240d565b8655506124f3565b601f1984166124a18661227d565b60005b828110156124c9578489015182556001820191506020850194506020810190506124a4565b868310156124e657848901516124e2601f8916826123ef565b8355505b6001600288020188555050505b505050505050565b7f796f7520617265206e6f742066726f6d20656c656374696f6e20636f6d6d697360008201527f696f6e0000000000000000000000000000000000000000000000000000000000602082015250565b60006125576023836117ca565b9150612562826124fb565b604082019050919050565b600060208201905081810360008301526125868161254a565b9050919050565b6000612598826118e7565b91506125a3836118e7565b92508282019050808211156125bb576125ba61206b565b5b92915050565b7f796f752061726520616c72656164792072656769737465726564000000000000600082015250565b60006125f7601a836117ca565b9150612602826125c1565b602082019050919050565b60006020820190508181036000830152612626816125ea565b9050919050565b7f726567697374726174696f6e2066756c6c000000000000000000000000000000600082015250565b60006126636011836117ca565b915061266e8261262d565b602082019050919050565b6000602082019050818103600083015261269281612656565b9050919050565b7f796f7520617265206e6f742066726f6d20656c656374696f6e20636f6d69737360008201527f696f6e0000000000000000000000000000000000000000000000000000000000602082015250565b60006126f56023836117ca565b915061270082612699565b604082019050919050565b60006020820190508181036000830152612724816126e8565b9050919050565b7f766f74696e67206973206f766572000000000000000000000000000000000000600082015250565b6000612761600e836117ca565b915061276c8261272b565b602082019050919050565b6000602082019050818103600083015261279081612754565b9050919050565b7f796f7520617265206e6f74207265676973746572656400000000000000000000600082015250565b60006127cd6016836117ca565b91506127d882612797565b602082019050919050565b600060208201905081810360008301526127fc816127c0565b9050919050565b7f796f75206861766520616c726561647920766f74656400000000000000000000600082015250565b60006128396016836117ca565b915061284482612803565b602082019050919050565b600060208201905081810360008301526128688161282c565b9050919050565b7f766f74696e6720686173206e6f74207374617274656420000000000000000000600082015250565b60006128a56017836117ca565b91506128b08261286f565b602082019050919050565b600060208201905081810360008301526128d481612898565b9050919050565b7f7468652063616e64696461746520726567697374726174696f6e206973206e6f60008201527f7420646f6e652079657400000000000000000000000000000000000000000000602082015250565b6000612937602a836117ca565b9150612942826128db565b604082019050919050565b600060208201905081810360008301526129668161292a565b9050919050565b7f63616e64696461746520646f6573206e6f742065786965737400000000000000600082015250565b60006129a36019836117ca565b91506129ae8261296d565b602082019050919050565b600060208201905081810360008301526129d281612996565b905091905056fea2646970667358221220038bbacc8cc593c5d34b6b8ba6a31ea4afeb21b9599bdfdb18b427473d7d9a3364736f6c63430008130033",
  "linkReferences": {},
  "deployedLinkReferences": {}
}